:020000040800F2
:10000000B00F0020490100081D280008CD26000877
:1000100000000000000000000000000000000000E0
:10002000000000000000000000000000912B00080C
:1000300000000000000000001F280008BD2B000881
:100040005B010008000000005B0100085B01000884
:100050005B0100085B0100085B0100085B01000810
:1000600000000000C51200085B0100085B010008E9
:100070005B0100085B0100085B0100080000000054
:100080005B01000800000000000000005B010008A8
:10009000000000005B0100085B0100085B01000834
:1000A0005B0100085B0100085B0100085B010008C0
:1000B0005B010008000000000000000000000000DC
:1000C00000F002F800F030F80CA030C8083824180E
:1000D0002D18671EA246AB4654465D46AC4201D180
:1000E00000F022F87E460F3EB6460FCC0126334282
:1000F00000D0FB1A3343A246AB46184780320000BB
:10010000A03200000023002400250026103A01D36D
:1001100078C1FBD8520700D330C100D50B607047BF
:100120001FB51FBD10B510BD00F04EFF1146FFF703
:10013000F7FF02F02DFE00F066FF03B4FFF7F2FFB9
:1001400003BC00F0B7FF000007488047074800479E
:10015000FEE7FEE7FEE7FEE7FEE7FEE704480549A7
:10016000054A064B704700002D2C0008C10000080E
:10017000B0090020B00F0020B00B0020B00B002011
:1001800001E004C0091F0429FBD28B0701D50280BE
:10019000801CC90700D00270704700290BD0C3072C
:1001A00002D00270401C491E022904D3830702D5E5
:1001B0000280801C891EE3E70022EEE70022DFE7D1
:1001C00070477047704700000246C80FC007814360
:1001D0004B0030B54B405B009B0D20D01923DB0654
:1001E000C91801231B05994220DB0324A407042519
:1001F0001346AB400BD3002B04D1EB0613409B00FE
:10020000E34204D401246407002312195941FF2357
:100210001B0599420BD2C9000143500F09E0CB02E4
:1002200004D501430803024305D0054830BDFF2132
:10023000C905084330BD084607210905884330BD7C
:100240000000C07FF0B50C46871A9C410D46861A07
:100250009D4103D2C01BA141D21963410D0D1F0D59
:10026000C94EEC1BAE435CD07F057F0D0026002FEE
:1002700051D02D05AC46A943DD020123ED0A1B0533
:100280001D4320231B1B24D41746E7403818714117
:100290002F46E740CC199D402818314661410C0D8E
:1002A00027D161449A4013D50023401C5941520084
:1002B0000ED14008400001224B005205D34207D323
:1002C00005204007C14201D5B04900E0B0493046A1
:1002D000F0BD6B00002A00D001229A181F23203C99
:1002E0001B1B01D5002302E0E540281871410C0DCD
:1002F000D7D0012424050919C407CD0740084908AF
:10030000E40F28436144002CD5D00024401C6141F7
:100310009A40D0D1CDE76A05520DD9D1C90FC9078E
:10032000D5E79C4D4E00002801D0012400E00024B8
:1003300034195F00002A01D0012600E00026BE1912
:10034000954FAC420CD8AE420AD8B44206D0012533
:100350006D05EC42BCD010461946F0BD9942FCD068
:1003600000203946F0BDF0B51FB40C460F46811A87
:100370009F412546861A9D4106D20125ED076F4013
:10038000401ABC4152187B41210D1E0D8D1BAC46FD
:100390007D4D8D437ED075056D0D7CD00D05AE462F
:1003A000AC431B031B0B794D52429D4120236646F3
:1003B0009B1B14D31746F740381800260090744151
:1003C00060462F460741E41900989D402818664171
:1003D00016D4714671189A4025D5012320E0931850
:1003E0002A466A415200002B00D0521C1E23203E98
:1003F0009B1B002B61DD3541EE1728186641E8D5BF
:10040000001876415B1C9A4000D3401C4B05F31842
:100410001524E34010D3002B52D071467118D30F2E
:10042000C01802D3491C05B0F0BD0123DB079A4276
:10043000F9D140084000F6E701225205B21801D177
:10044000002853D00123CC0ADB029943891E002ADD
:1004500008D1020C03D0020C0004103902E002465D
:10046000002020390023550B05D112020823550B1B
:1004700001D152010D23550C01D112011B1DD50CC8
:1004800001D192009B1C150D01D152005B1C20254F
:10049000EE1A01E02CE022E00546F54015439840B5
:1004A000CA1AE10769181305C918002ABBDA032024
:1004B00040070818C10FC9070FE071466118B2E77D
:1004C000F10740080843711071444A000CD0012321
:1004D0005B059A42A7D2C90FC9070020A3E74905C7
:1004E000490D26D1002001E00028F4D100219AE72F
:1004F000284D6600002801D0012100E0002171187C
:100500005F00002A01D0012600E00026BE19224F1C
:10051000A94210D8AE420ED8B14208D001256D05CF
:10052000E94206D01946A802414010467BE79C42AA
:1005300001D0214677E70020394674E710B50C4614
:100540005C4005D50124E4076340FFF70CFF10BDB4
:10055000FFF778FE10BD30B40C465C4004D5012492
:10056000E407634030BC6DE630BCFCE670B50124A6
:10057000E40761400D465D4002D4FFF763FE70BDA5
:100580006340FFF7F0FE70BDFF0700000000F0FFC2
:100590000000F07F0000E0FF0000F87FF0B5F94DAB
:1005A0000C091E092C402E402F468BB0A7437DD04E
:1005B000B543FCD0002E7AD0002CFCD00D465D4017
:1005C000ED0F2543AC1BFF25AD0464190894C5024B
:1005D000440DC9022143500DDC0204430120C00731
:1005E00001430443D2020191200C110C00958C466A
:1005F000010423468B430A9161460904E24D8A4374
:100600000991010A7D4449198039097805464D430D
:1006100001266D18F605751B6943C90C640B891C0E
:100620004C436418B5012C1B250C2E04B4434C43D9
:100630004D43210C691889090591009DE90701D0F6
:100640000121C90704912C4601996708CD072F4362
:100650004C08059DE10B4D432D0C2946664675431C
:1006600002950D4645432E46029D7D1BB4410095E3
:100670000D465D4301942C0C2F040D465543AE46A8
:100680002D0C3D43029503947546049C2D04641B78
:10069000049406D2029C039D641C002675410395B8
:1006A000029401AC70CC009F7D1B01E03EE162E151
:1006B000B44109040095079101940599A408614388
:1006C000090C0C464443650BE7040C46664674432C
:1006D000A646640B3C43039502947446049DE404CF
:1006E0002C1B049406D2029C039D641C00267541B9
:1006F0000395029401AC70CC009F7D1BB441019422
:100700000C465C430095650FE7000C465443A64633
:10071000640F3C43039502947446049DE4002C1B33
:10072000049406D2029C039D641C00267541039527
:10073000029401AC70CC009F7D1BB441AE09AF06A2
:10074000049DC900AD092F43049DA406AD06049580
:10075000079D344369180791059DE10B4D432D0C0E
:1007600029466646754302950D4645432E46029D31
:100770007D1BB44100950D465D4301942C0C2F0464
:100780000D465543AE462D0C3D43029503947546E8
:10079000049C2D04641B049406D2029C039D641CDB
:1007A000002675410395029401AC70CC009F7D1B1F
:1007B000B44101948C050694079C890A6118009540
:1007C0000791019C0599A4086143090C0D46454316
:1007D000680BEF040D46644665436C0B3C43049F75
:1007E000ED047D1BAC4602D20025641C6841009ECE
:1007F000019D371B85410846584301950C46460F1D
:10080000C5005443600F28436546E4002C1B02D208
:100810000025401C6E41019D3F1AB5412846BD0987
:10082000800628438446A009BF064E020699A40606
:1008300076180743079D002068410A9907901943DD
:100840000020099B00906046FF1913434041E20FCE
:1008500064003A43A4460446D71A8C41A04203D907
:100860000120009020463A46C70F94184041624646
:10087000D20F2243644664000494009CBE46640088
:10088000D71AA446044602978C417746002F01D11F
:10089000A04204D96046401C8446029A2046C40FF8
:1008A000A64694184041049A0546D20F2243644656
:1008B0006400D31A8D417146002901D1A84202D9A2
:1008C00028461A46641C10430122002800D0164313
:1008D00061020020079B891904465C410223002C19
:1008E00002DB491813466441089DCE0A2D145D1998
:1008F0004B056705E10A2C050D1908993E43C90708
:100900006940002B08D0934006D30022761C514149
:10091000002B01D1760876001C4A002D43DB1542DE
:1009200041D0AA433FD030460BB0F0BD06180D466B
:100930004D41174C7642AC411AD395181C465C4188
:10094000134A6D42A24113D3012252054C00D442F6
:100950000AD15C00D4420BD04B4002D59202114325
:10096000E2E749004908DFE75940C90FC90718E025
:1009700000200849D8E7054801420DD10342F7D0CD
:10098000F2E700000000FF07742C00000000F07F79
:100990000000E0FF0000F87F114859400143C012F9
:1009A00041400020C0E70123089A9B069A4205DCDB
:1009B000032252078918C90FC907B5E70522520754
:1009C0008918074A1143D2125140ADE770B5154658
:1009D0001C4602460B4628462146FFF7DFFD70BD48
:1009E000FFFFFF7FF0B58B4C0F09254689B0BD4353
:1009F0007BD01D092646AE43FAD00E465E40274006
:100A0000F60F3E43254071D024012142FBD0FF2444
:100A1000AD19A4042D1B039501252D05DB02DB0A6E
:100A2000C9022B43C90A29431E010901040F130FF0
:100A3000050121431701880B820391432D098C4640
:100A4000A90B1E438A039543B30B9A0396433F09B0
:100A5000BA0B9403A74302962E467E430497B646EC
:100A60004E19D7190C460196544305977E43371B00
:100A70007646BF1B3601B646BE0B36190096764643
:100A8000BC043719009C01D3641C00946400002F3F
:100A900001D001263443029E049F754366467E437F
:100AA0000496760034196E0034190094029C019E5D
:100AB0001C196643751BAE46069465464519059C90
:100AC00005956C43594375460891691A0191049E36
:100AD00001465143A41B0491611A009C0791E10651
:100AE00005D061090122114302E072E06EE0610964
:100AF000089D00272C0A2D066918049D7C412A0AAE
:100B00002D066918019D6241AC0DAD026D1854416E
:100B1000079A910D920255196141029A6446584311
:100B20005443069B059A5A43121A131B9A0E9B01B3
:100B30005B187A41010B0005C3185141220A2006B7
:100B400044195A419A4200D2491C01204002814274
:100B500003D315230226F64302E014230326F643AB
:100B60002020C51AA9401746AF40DA400A43204664
:100B70000399D8400914731819055118039A38437A
:100B8000D2075140AC4009D00122944006D3002244
:100B9000401C5141002C01D1400840001E4A9342A4
:100BA00012D3012203989206904207DB05204007EA
:100BB00009181A480143C012414004E003204007CD
:100BC0000818C10FC907002009B0F0BD0020F107C7
:100BD000FAE705180C464C4111486D42A04115D367
:100BE00094181A465A410E48644290410ED301208F
:100BF0004A004005824209D35A00824206D3594036
:100C0000C90F084AC90700201143DDE70020064943
:100C1000DAE700000000FF07FE070000FFFFFF7F8C
:100C20000000E0FF0000F07F0000F87F0121C9050F
:100C30000123411842001B06D3185B0E0AD0C110D5
:100C40000722D206891840075242D14201D55200EC
:100C500089187047090208D50146002A03D0C10F40
:100C6000C9070020704710467047420202D000209A
:100C700002497047072109050143F4E70000F87FA6
:100C8000F0B5FF252D04C609C209FF2704462E40F2
:100C90000137CB093E4348402A402B400746002AF3
:100CA0006BD0002B69D0AA4267D0AB4265D0002838
:100CB00000DA32460125ED0529432C4309022002C2
:100CC000090AD21A4B0C7F24E31A434C000A7C44D5
:100CD000E35C7D242404121914145B00A2188842DA
:100CE00001D3521C00E0400049420C465C432411F1
:100CF0005C43DB016415E318040A5C43C502200D64
:100D00000C4644436419250A5D432303EC0C0D464D
:100D1000654300030019EB184C42A34201D35B1852
:100D2000401CD4052018002B07D05B00C91804D341
:100D3000401C002901D1400840003F2189048A421B
:100D400009D3002A08DC1106090F04D00321490742
:100D50004018C00FC007F0BD0122410012068918DB
:100D60007F2252069142F6D205214907C84201D599
:100D70009010F0BDFF20C005F0BD002F00DA324614
:100D80001648AA4207D2AB4205D21902090E17D063
:100D9000F80FC007F0BDFF2563002D06AB42F9D860
:100DA0004900A942F6D8AB4201D1A942F2D0A942EA
:100DB00001D1002101E061004908D0050843F0BDE0
:100DC0001102090EFBD0FF200243D005F0BD0A46F8
:100DD0000146104654E700002A2600000000C07FAC
:100DE0001F22030C02D10F2200041CD0030E01D1DC
:100DF0000002083A030F01D10001121F830F01D135
:100E00008000921E002801DB4000521ED2055118BE
:100E1000021251181922904004D3491C002801D114
:100E20004908490008467047C10FC90700D0404231
:100E3000012292071143D3E701218907D0E710B5BA
:100E400000F088F8006810BD10B5044600F082F884
:100E5000046010BDF0B53D4B02460C461C4000201E
:100E6000002C63D03A4D8B4366D000296BDB0B0D11
:100E70001D05A94301252D0529430124FD33E34028
:100E800001D392184941FF3381339C468B02940D64
:100E90000121234389074C42920200271B198C1021
:100EA0005D1A04D42D1B02D42B46650049199218F3
:100EB0005B416408F4D15C1A08D40125ED07EE17F4
:100EC0005519744102D42A462346491C94185B41A3
:100ED000012292071D46E61B8D4106D4B61A8541B4
:100EE00003D42B46550034467F1924195B41520820
:100EF000802AEFD1234300D0022338460A22D04073
:100F000001D3012213438A0510436246890A120560
:100F10008918002B09D00122D34002D30022401CA3
:100F20005141002B01D140084000F0BD0B03134399
:100F300007D0C90FC907F0BD0803104303D100292A
:100F400001DB1046F0BD00202946F0BD0000F07F17
:100F50000000F87F004870477808002010B5FF2394
:100F60001B0644009C421DD84C009C421AD80346E4
:100F7000124A0B4307D4401A02D3EFF3008010BD8E
:100F8000EFF3008010BD081A03D3EFF30080904305
:100F900005E0EFF3008001219043C907084380F387
:100FA000008810BD0D231B041A4204D011460020F6
:100FB00000F031F810BD00F045F810BD00000090C1
:100FC00000487047780800207546FFF7F9FFAE46E5
:100FD000050069465346C008C000854618B020B5D4
:100FE000FFF7BCF860BCB64600260027C0C5C0C5E8
:100FF000C0C5C0C5C0C5C0C5C0C5C0C5403D490805
:1010000049008D46704710B50446C046C04620468C
:10101000FFF793F810BDC80212D54803400F00280F
:1010200004D0C803C043012188407047EFF300801B
:101030000001000903210907084380F30088704775
:101040000020704710B5024800F004F810BD000001
:101050000000C07F10B50C461107090F092904D004
:101060000A290AD008290CD104E011460820FFF70C
:10107000D2FF06E0510606D501E0510601D5012058
:10108000C007214610BDD10607D501010909CC08CA
:101090004907000E0006044309E0410F20024907FA
:1010A000000A0143200E00061D22D14101430846DB
:1010B000E7E7000001491820ABBEFEE7260002006A
:1010C000704730B58C180278401C13071B0F01D1F4
:1010D0000378401C120906D10278401C03E0057811
:1010E000401C0D70491C5B1EF9D101E00B70491CBE
:1010F000521EFBD1A142E6D3002030BDB0B5846AB8
:10110000A26DA16D50231A4205D0C9061FD4216DCE
:10111000496B8847B0BD012568020143A16520687D
:1011200001F01FFB002821D0A07E00281ED12068DE
:10113000016809071AD501F010FB00280BD0A06D3B
:1011400020210143A165E06D2843E0650EE02046C3
:1011500000F0C7FAB0BD206841680C22914341609D
:10116000FF200230A16D8143481CA065204600F09D
:10117000B1FAB0BD80B5806A816D40220A438265B4
:10118000C16D04220A43C26500F0ABFA80BD80B590
:10119000806A00F0A5FA80BD70B50446006801F0D1
:1011A000CCFA0646206801F0CCFA0025002E24D1A6
:1011B000002822D02068816805220A40012A1ED119
:1011C00001F086FA20680321016000F019FE06464E
:1011D00020688068C00710D000F012FE801B032832
:1011E000F6D320688068C007F2D0A06D10210143BB
:1011F000A165E06D01252843E065284670BDA06D1E
:1012000010210143A165E06D01252843E0652846D2
:1012100070BD000070B582B00546002401940068DE
:1012200001F08FFA002816D128688168224A1142FD
:1012300008D0A86D10210143A965E86D0124204361
:10124000E86508E001F050FA01F06AFA000205D4FE
:10125000687E01280FD1204602B070BD1748006893
:10126000174901F0B1FD401C019001980028EFD012
:101270000198401EF8E700F0C3FD064628680168A3
:10128000C907E8D101F05DFA002802D1286801F011
:101290002BFA00F0B5FD801B0328EFD32868006807
:1012A000C007EBD1A86D10210143A965E86D0124A9
:1012B0002043E865CFE7C04617000080680800209B
:1012C000400D030080B504480168491C01600348D3
:1012D00000F0C8FB80BDC046E0080020480900209F
:1012E00010B504460948216C091880300322914347
:1012F0006164A06420780838142101F065FD1F2185
:10130000014001208840E06410BDC0460008024052
:1013100010B5084942683F2313405A1E0323134067
:1013200001249C4092005218403102654165846559
:1013300010BDC0460009024070B5846CC56C656084
:10134000046D002C02D0446D856D6560046C1C2515
:1013500025400124AC40084D2E6826432E600468C9
:10136000636080681028134600D00B46A3601028E5
:1013700000D01146E16070BD04000240EFF3108020
:1013800072B6FEE7F0B587B00446002106915420FE
:10139000205C012801D1022568E0059126465436DB
:1013A000012737702046FFF7F7FE0546206801F059
:1013B000CCF9A16D002805D010200143059F37709E
:1013C000A16553E003970496029581204000814374
:1013D000881CA0652068C168C268324B1340C36096
:1013E000314808400190314E059D2F46206801F09C
:1013F0000BFA206801F09EF9002806D00698401CE0
:1014000006900698B042F4D326E0206801F082F9F5
:10141000C7196D1C082DE9D1206801F06BF920680F
:10142000F90801F0C9F9206801F058F900F0E8FC6A
:101430000390206801F089F90028029D059F049E11
:101440001CD12068C168019A1143C160A06D0121BF
:10145000014302208143B2E7002004990870A06D87
:101460001021014302208143A165039D284607B056
:10147000F0BD206801F069F90028E2D000F0C0FC5E
:101480000399401A0328F4D3206801F05EF900287C
:10149000EFD0A06D10210143A165E06D0125284327
:1014A000E065E3E7FC7FFFFF0380000000F202003D
:1014B000F0B587B00C460546002106915420285C03
:1014C000012801D102260FE005912F46543701264D
:1014D0003E70286801F041F9002808D0A86D20214D
:1014E0000143A96505993970304607B0F0BD2869F8
:1014F000616802291DD1042108437249884203D141
:101500002168286801F03CF9206800260028E9D508
:1015100001F006F921686D4A914200D190E06C4AD1
:10152000914200D18FE0684A9142DBD10121C90587
:101530008BE004263043634A90422ED1216828680C
:1015400001F016F9A2682168286801F03DF92068C9
:1015500000260028C6D5012501F0E2F821685A4A84
:1015600091425FD1EA05034613405BD1104301F07D
:1015700037F9E0480068E04901F026FC0C214143BE
:101580000C31069106980028ACD005990698401EAB
:10159000069006980028F9D1A5E71F2008400F23E0
:1015A000029383402A6E9A43049222685303039263
:1015B00043D00193D307059B5DD1039A930755D47C
:1015C000530755D4130755D4D306334653D4039A3F
:1015D00093065ED453065ED413065ED4039AD305F5
:1015E0005DD4039A93055CD4039A53055BD4039AA4
:1015F00013055AD4039AD30459D4039A930458D4A4
:10160000039A530457D4039A1304029B33D4039AC6
:10161000D30352D4039A930351D4019AD6171223B9
:10162000334028E0294A914213D12A060346134049
:101630000FD1104301F0D4F854E75300DB0E1AE049
:101640000121090601E001218905884301F0C8F85C
:1016500048E71F4A914200D044E7A90502460A40E4
:1016600000D03FE7084301F0BBF83BE7012302E06D
:10167000022300E003238340049803432B66880879
:10168000EA69824200D85DE72868039A01F082F88F
:1016900058E70523EFE70623EDE70723EBE70823E9
:1016A000E9E70923E7E70A23E5E70B23E3E70C2350
:1016B000E1E70D23DFE70E23DDE71023DBE711234E
:1016C000D9E7C04604000080001000B0004000B818
:1016D000002000B40148002101707047D8080020A4
:1016E00070477047F0B589B00024089400282BD0CB
:1016F0000546806D002807D12E465436284600F056
:1017000005F900203070E865286801F022F800280B
:101710001CD0286801F01DF8002807D1A86D102101
:101720000143A965E86D01242043E8652F46583739
:10173000286801F012F8A96D102211400143A86D2C
:1017400015D01043012479E0012478E0286800F0E6
:10175000D7FF68480068684901F036FB4000801CEC
:10176000089008980028D4D00898401EF8E7069200
:101770000F210591C9430791F3390840801CA865E2
:10178000286800F0DEFF002816D06A6B2868002168
:10179000059101F02FF8AA6B28685B4901F02AF83F
:1017A000286901267105884222D000282DD1286899
:1017B000816A079A114326E02A462032286B411E8F
:1017C00088410303A868297E89030143687EC60314
:1017D0000E43A87E029040033043E9680143194359
:1017E0000126F0072B69002B03902BDA83432AE0B4
:1017F0002868816AE96989001C311C220A40079B1C
:101800009340296E194328300160286800F08EFF4C
:10181000696B884207D10598E865A96D01200843E6
:10182000022188430AE0A86D0699084302218843F3
:10183000A865E86D30435C352F4634463860204655
:1018400009B0F0BD73051943107B43000B431078BA
:1018500001280CD10298002807D0A86D202101434F
:10186000A965E86D3043E86501E030040343686A28
:101870000028049605D00721890108401843AB6A67
:1018800003432968C8681D4E06401E43CE600320EE
:1018900080076E68334602900340E86C127F034372
:1018A000012A0CD1286C6A6C0092AA6C0192184330
:1018B000009A1043019A1043049A104303460869A2
:1018C0000F4A02401A430A610398864200D15CE73E
:1018D0000298864200D158E704988007864200D1DA
:1018E00053E705988004064006490A688243901928
:1018F00008604AE768080020400D03000102FEFF6F
:1019000002FCFF1F0827014004FFFF07F0B58DB060
:10191000024600260C960B960A960996089607969C
:101920000696059604960396029600681E4988421C
:1019300001D00DB0F0BD06960127B803029002A8B1
:10194000009200F0E5FA38051849CA680243CA60F7
:10195000CA68024001920198086838430860086824
:10196000384001900A9603200990072008900198BA
:101970000524200708A900F06FF90D4D2E622020E4
:10198000B9023A0280230B4F2F606C60AE60EE60AC
:101990002B616A61A961E861284600F0BFF80098F0
:1019A0000565A8620DB0F0BD00240140341002406E
:1019B0004809002008000240F0B583B015460E46E5
:1019C0000446006800F0C9FE022700283FD10295B6
:1019D0005420205C01283AD02546543501272F7029
:1019E0002068C168C9070AD100F0ABFE002802D008
:1019F000206800F06DFE2068C1683943C16001971E
:101A00002046FFF707FC0746002820D1A06D1149AA
:101A10000140019800020818A0650020E0652168D7
:101A20001C220A602870206D0B4A0C4B0C4DC562BD
:101A3000036342634A68102313434B6040313246CC
:101A4000029B00F0C5F80746206800F0AFFE38465C
:101A500003B0F0BDFEF0FFFF751100088F11000804
:101A6000FD100008F0B581B0016C1C240C402A491F
:101A70000A1F156802681668730714D504210F46FB
:101A8000A7403B462B400ED013689B0602D4136838
:101A90008B431360204A116839431160016B0029A0
:101AA0001CD101B0F0BD03462433B10719D502277C
:101AB000A7403946294014D01168890605D4116819
:101AC0000A24A14311600121597000211970124AA2
:101AD000116839431160C16A0029E2D0884701B01A
:101AE000F0BD3107DDD50821A1402940D9D01168CA
:101AF0000E25A943116001210A46A240064D2C681B
:101B000014432C60C16300221A705970416B002984
:101B1000C7D0884701B0F0BD04000240F0B583B0E3
:101B2000002843D004460146243102200291487027
:101B30002668306824490140316024483018142157
:101B400001F042F980002064A16827460C378DCF50
:101B5000E5690095256A0195084310431843384309
:101B600000990843019908433168014331602046D8
:101B7000FFF7B6FB0126B003A168814201D1002026
:101B8000606060683F210140626C1160A16CE26C92
:101B90004A60401E03280CD82046FFF7B9FB206D91
:101BA00000210160606DA16D416006E0012003B07D
:101BB000F0BD002020656065A0650020E06302990B
:101BC00008704E7003B0F0BD0F80FFFFF8FFFDBF3F
:101BD000F0B581B005462420285C012801D10224FB
:101BE00037E028462430012404704678012E12D1B3
:101BF000022444700024EC63286807680126B74378
:101C000007602846FFF798FB286801682A6B002ABE
:101C100006D00E2209E0002101708020E86318E060
:101C200004229143016002680A21114301603002DD
:101C3000696C0A68D20302D50A6802430A60296DFA
:101C4000002902D00A6802430A602868016831430B
:101C50000160204601B0F0BDF0B588B00B460968C0
:101C6000002900D1B7E002465C48824201D005203D
:101C700000E003200090012400200546069007465E
:101C8000019407920FE03843039F56490860196892
:101C90000846E040069E361D0696AD1C0837641CBB
:101CA000002800D197E0661E01980596B0400140DB
:101CB0000291ECD0039719465B6803261F460496F1
:101CC00037407E1E012E13D8049EAE40079A9268BC
:101CD000B243CE68AE401643079A9660DA06D20F3A
:101CE000059B9A40079B5B6883431343079A5360A5
:101CF000032F0B46049E1ED03046A840079AD26898
:101D000082439868A8401043079AD060022F12D1EE
:101D10001C20069A10400F268640059AD208920091
:101D2000079B9A18136AB3430E6986401E430B46FD
:101D30001662049E079A3046A8401168814358688D
:101D400082033040A840084307990860900F079A23
:101D5000039F9CD0182139400F208840059FB7432E
:101D60001F4EF619376E8743603605200007824202
:101D70000AD01D48824205D01C488242009804D1F6
:101D8000022002E0012000E000208840384330605B
:101D9000134800685E68F10202D5029F384301E0F3
:101DA000029FB8430E4908604868B10201D5384324
:101DB00000E0B8430A4948600A484068B10301D5C9
:101DC000384300E0B843074948600868F10300D58C
:101DD00059E7B84358E708B0F0BDC046000C0050C2
:101DE0000018024080180240000400500008005013
:101DF000002A02D018228150704728228150704753
:101E0000054800687047C0461E48007802490A68C5
:101E1000101808607047C046A809002010B50124BA
:101E20002002F4490A6802430A60032000F00AF81D
:101E3000002801D0204610BD00F026F800242046DE
:101E400010BDC046B0B505460E48017801240029F2
:101E500016D07D20C00000F0B7FF0146E8480068BA
:101E600000F0B2FF00F02EFC032D09D8002807D1A6
:101E70000024E0432946224600F020F8E1480560AE
:101E80002046B0BD6C08002082B00948416801229C
:101E900011434160416811400191019911070268A5
:101EA0000A430260006808400090009802B0704742
:101EB0003C10024080B500F0BBFE80BD80B500F054
:101EC000C3FE80BDF0B581B0032569026E4E326855
:101ED0008A430243326001214A020024904212D117
:101EE000C7480268706940050DD58F02062050432F
:101EF000064900F069FF801C401E03D07169394219
:101F0000FAD100E02C46204601B0F0BD40420F005F
:101F1000F0B587B00646807880075A4F01D4002577
:101F20003EE0059601221107203F386808400490E2
:101F300006D138680843386038680840069006982B
:101F400002970391019216024F4C206830432060A3
:101F5000FFF756FF05462768374006D1FFF750FFC9
:101F6000401B0328F7D3032500E00025059E002F22
:101F700001D1444F0CE003242102424F386808404D
:101F800055D07269904256D1C00761D1002D70D0F2
:101F90000498002804D1029A1068039988431060BD
:101FA0003068C10707D0394608390A6803239A43C5
:101FB000736813430B60810608D5032109033A4671
:101FC000083A13688B43B168194311600121420438
:101FD00017D53A46083A13682D4C23400C4629463B
:101FE0003546366933431360294A521C96422E46C1
:101FF0000D46214605D10A043B46503B1C6814435C
:102000001C60000510D58803032292033B46083B61
:102010001C689443F26814431C60824204D1080493
:10202000503F396801433960284607B0F0BD0020B1
:10203000C007ABD00CE03868019A12043B68134328
:102040003B603B6893433B6088433860C0079DD04A
:102050000194FFF7D5FE06460C4C3868800705D47E
:10206000FFF7CEFE801BA042F7D3019D059E002DF9
:102070008ED10320000239688143706908433860BB
:10208000002585E75C1002400070004089130000C5
:10209000FFFFFF3FF0B583B00D460121002800D1BE
:1020A000A5E0019102905348006807242040A8420F
:1020B00014D250490868A043284308604E4EFFF7E9
:1020C0009FFE07464B4800682040A84206D0FFF715
:1020D00097FEC01BB042F5D9032188E0029B186827
:1020E0008107684E0CD5410703D5210332680A43A6
:1020F00032600F21090232688A43996811433160C6
:10210000C00719D13B4800682040A84229D9394965
:102110000868A04328430860374FFFF771FE064662
:10212000344800682040A8421BD0FFF769FE801B9E
:10213000B842F5D903215AE0586803282FD8810006
:1021400001A251584F4A8F4659210008A521000885
:10215000AF210008B921000811460839096849056E
:102160002CE0029A10784007464D05D520032968D7
:102170008143D0680843286000F046F8296889093F
:102180003C220A401D4989581F220A40D0401C4960
:1021900008601C480068FFF755FE014627E0394AF1
:1021A000516D0AE0114608390968890306E01146B5
:1021B00008390968890101E0916D8907019916D5EF
:1021C0001168A143014311600B4FFFF719FE06464A
:1021D0002C4800683821014002984068C0008142C4
:1021E00090D0FFF70DFE801BB842F1D903210846BD
:1021F00003B0F0BD00200240881300003C3300080B
:10220000680800207008002010B51E4C2068800669
:10221000400F06D0226838210A401B48082A07D1FF
:1022200010BD083C20688004410F1848C84010BD0C
:1022300022680A40102A15D1616803220A40032A45
:1022400000D0124861684906490F491C00F0BCFDE6
:1022500061684904490E48436168490F491C00F010
:10226000B3FD10BD20680840202802D10120C00322
:1022700010BD20680840182801D0002010BD7D2026
:10228000000210BD0810024000127A000024F40081
:10229000F0B587B00127002800D1F8E10497059038
:1022A0000078C007FD4E2CD10598007880074CD4EB
:1022B0000598007800070DD5B0683821014018292D
:1022C00000D0A6E0306E800704D50598806900280C
:1022D00000D1E1E105980078400700D45FE1B068E3
:1022E00038210140202900D0AAE0F06D800700D4F9
:1022F00052E105988068002800D04DE100200127B8
:102300004BE1B068F16803273A468A43382101401F
:1023100010204840821850425041082945D00028DA
:1023200043D105984268052000048242039200D1FF
:10233000B8E0012001048A4200D1B9E032688A4342
:102340003260810430688843B4E0B16838200840C6
:1023500010214140F26803273A4002235340CA1833
:102360005142514100282BD0002929D13068012148
:102370008C02059BDA68002A00D1B8E00722D2025D
:1023800090431A69024332600802316801433160A8
:10239000FFF736FD05463068204200D0B7E0FFF772
:1023A0002FFD401B0228F6D971E13068800300D46C
:1023B0007AE705984068002800D075E7049F66E139
:1023C00031684905059B03D5D968002900D1B9E0DA
:1023D0007F21090272688A435969090211437160B9
:1023E00000280DD10720C0023168814318690843D5
:1023F000306030688004400FAB49C140AB48016099
:10240000AB480068FFF71EFD002800D150E7049F8D
:102410003DE1306E05998969002900D181E00121F3
:1024200008433066FFF7ECFC0546306E800700D5A8
:1024300050E7FFF7E5FC401B03270228F5D926E10A
:10244000012003900107F06B0840029006D1F06B69
:102450000843F063F06B0840069006980191954C94
:102460002068C00510D40398070220683843206014
:10247000FFF7C6FC05462068384205D1FFF7C0FCCF
:10248000401B0228F7D975E005988468052C5BD0BD
:10249000012C5DD0F06D03998843F065F06D042147
:1024A000884358E00120810432680A433260010405
:1024B00030680843306001204404FFF7A1FC054662
:1024C000039800280FD03068204200D0ECE6FFF7D8
:1024D00097FC401B6428F6D9D9E0FFF791FC401B1C
:1024E000642800D9D3E030682042F6D1DCE6090246
:1024F00088433060FFF784FC05463068204200D1F5
:10250000D6E6FFF77DFC401B0228F6D9BFE07F200E
:1025100000027168814305984069000208437060B9
:10252000C6E6012188433066FFF76AFC0546306E37
:10253000800700D4CEE6FFF763FC401B0327022888
:10254000F5D9A4E0049FA2E0F06D04210143F165F8
:10255000F06D03990843F065574FFFF751FC0546AE
:10256000002C0FD0F06D80070FD4FFF749FC401B03
:10257000B842F7D9002003270FE0FFF741FC401BCA
:10258000B842F7D8F06D8007F7D40298002803D13D
:10259000F06B01998843F0630120002877D00598FB
:1025A000C469002C72D0B06838210140102903D1D1
:1025B000012C18D1049F6AE0012739063068049184
:1025C00088433060FFF71CFC0546022C2CD1039792
:1025D0007C063068204232D0FFF712FC401B0327F4
:1025E0000228F6D953E0F06803210140059B1A6ADE
:1025F00091424FD1702101405A6A914250D17F21BE
:10260000090201409A6A120291424BD11F214904EA
:102610000140DA6A9142049F39D1072149070840F5
:10262000196B884233D131E07C063068204229D0D2
:10263000FFF7E6FB401B03270228F6D927E0F068E6
:102640001F490140059F2037ADCF084310431902B1
:10265000014329433943F1603068049908433060ED
:1026600003980007F1680143F160FFF7C9FB0546D5
:10267000306820420AD1FFF7C3FB401B0327022822
:10268000F6D904E0F0680D490140F1600027F8B286
:1026900007B0F0BD049FFAE7049FF8E7001002407E
:1026A000049FF4E7049FF2E70024F4006808002088
:1026B000700800200070004088130000FCFFFEEF4F
:1026C0008C80C11F80B500F065FA80BDFEE7000078
:1026D0008168514A0A40911C8160704781684E4A66
:1026E0000A40911C8160704781684B4A0A40511C26
:1026F000816070478168484A0A40511C8160704778
:102700008168034A0A400121090751188160704716
:10271000E8FFFF6FB42141587F2008407047000058
:10272000072081053248006808407047416907204A
:10273000084070478068C00F704780688007C00FEE
:102740007047816801200840704781680120084077
:1027500070478068C000C00F704780684007C00F96
:10276000704703218902C2680A40504250417047B5
:10277000024A0A40816A114381627047FFFF0700E5
:10278000C943034A0A43816A114081627047C046C7
:102790000000F8FF1F230B409100090F99400F2202
:1027A0009A40836A93430B438362704781681A4A55
:1027B0000A40111D8160704710B5B42283587F24F0
:1027C000A3430B43835010BD090243698B430A4066
:1027D00002491140194341617047C04600FFFF079D
:1027E00007218905024A13688B430343136070472E
:1027F0000827014004230B409A4007219940436970
:102800008B431343436170478168034A1140891821
:10281000183181607047C046E8FFFF7FFEE77047D0
:102820004949012242547049002343504018828391
:1028300043607047B0B5044600F060F86A48251858
:102840004148205C002802D0012804D019E00E493C
:10285000A983012815D1687F012812D1204621467D
:1028600000F076F8204600F045F80146204600F0DA
:10287000A7F82968204600F0BFF8204600F0B8F815
:10288000B0BD6868B0BDC0460102000010B582B09E
:102890001448016801221143016000681040019052
:1028A00001980924002120460A46FFF707FB20462D
:1028B000FFF700FB00F0F2F90B4800F0E5F90B48D8
:1028C00000F0E2F90A4800F0DFF9F34C204600F08E
:1028D0000DFA1E48811C03222046FFF76DF802B056
:1028E00010BDC046381002405408002014000020DB
:1028F000000000202F49405A7047C046F0B51249E9
:10290000415C012907D10F49411800230B700F4A80
:102910001478002C00D0F0BD0124E50245198E7812
:102920007600B65A6E802F887F00C6532888401CD8
:102930002880EE8880B2B04201D12B800C701470D8
:10294000F0BDC0462508000026080000D808002079
:10295000F0B583B00A461649415A164BC4180029EF
:1029600020D0154D02946388012B019300D80123D8
:1029700045190020114906E004242C70C0195B1E83
:10298000921C002B0BD017885488E41BFF26F636C8
:10299000B442F1DABC1F8C42EED80024EDE7029C71
:1029A000019900E0002000F00FFA208003B0F0BD94
:1029B000060800000408000024080000F30F0000CF
:1029C00070B50446084D46190848205A081AFEF703
:1029D0002BFA0146706900F091FB0146B06900F0E6
:1029E0001DFB605170BDC0460808000012080000C1
:1029F000544940587047C046F0B583B00C46514921
:102A0000471851494058FEF711F902460B464F4806
:102A10004F49FDF7C3FDFDF7D7FB214600F06EFBE4
:102A20004C4900F0FBFAFEF701F900F0D3FA01225D
:102A30009207494BFDF782FD07225507474B2A466F
:102A4000FDF7ACFDFDF7C0FB0646002100F0B7FA2C
:102A5000002873D1F9692046FEF712F9404900F0C9
:102A60004DFB0646FEF7E2F83E4A3F4BFDF7BAFF44
:102A70003E4B2A46FDF762FDFDF7A6FB009030466F
:102A80003146019600F03AFB0546FEF7CFF8384A8A
:102A9000384BFDF7A7FF029707460C460098FEF754
:102AA000C5F802460B4638462146FDF747FDFDF7BF
:102AB0008BFB00903046294600F020FB0546FEF7D0
:102AC000B5F82D4A2D4BFDF78DFF04460F460098B3
:102AD000FEF7ACF822463B46FDF730FDFDF774FBF0
:102AE000FEF7A4F806460F46019C2046294600F052
:102AF00005FB0546FEF79AF8214A224BFDF772FFC7
:102B000002460B4630463946FDF718FDFDF75CFBE3
:102B1000FEF78CF806460F462046294600F0EEFAEE
:102B2000FEF784F8184A194BFDF75CFF32463B4626
:102B3000029FFDF703FDFDF747FB06463E6003B02D
:102B4000F0BDC0460C0800002808000088CE19EE31
:102B5000AF60C3BE17839337260270BFAF60B3BEAA
:102B60000000C842F163CC5D4BC80140A3406EC079
:102B7000BB82C87D062F653F93C266C7E03DD4BEC9
:102B8000CE563151E2425EBE3EFAE46127F3E43DA7
:102B900070470000B0B5401E010E01D00120B0BD4D
:102BA000054D68600024E043032100F04DF8AC605F
:102BB000072028602046B0BD10E000E080B5FFF798
:102BC00023F980BDF0B591B004AC34212046FDF767
:102BD000F5FA0026039602960196009601277802E0
:102BE000FFF770F97807109078040F9008200E9086
:102BF0000D9602250C950B954020099008963802F9
:102C0000079004952046FFF743FB00280CD103965C
:102C1000029607200090019568462946FFF73AFA88
:102C2000002801D111B0F0BDFEF7A8FB70470000ED
:102C3000002805D41F21084001218140014801607E
:102C40007047C04600E100E0002805D40322034697
:102C500093430C4A9A1806E00F220240083A0323D5
:102C60009A43074BD2188007C00E8901C9B2814030
:102C7000FF23834010689843084310607047C046A4
:102C80001CED00E000E400E080B501460831154885
:102C9000FEF70EFC80BDC046E4080020B0B53C2223
:102CA0001048002181542C230122C2542023C154F6
:102CB000C164022307240163446383634162816228
:102CC0000323C361827601830823074C5505D20490
:102CD000046042608160C16005614361FEF702FDEE
:102CE000B0BDC046E40800200024014080B5FEF7D6
:102CF00049FB411E884180BD10B586B01A490A685B
:102D0000012002430A600A6802400192019A0B689E
:102D1000022213430B600B6813400193019B0B6865
:102D2000042423430B600B6823400193019B0B6831
:102D3000082423430B600B6823400193019B0B681D
:102D4000202423430B6009682140019101990492DA
:102D5000C10301910290002003900520000701A902
:102D6000FEF77AFF06B010BD3410024080B5052092
:102D700000070121C9030022FFF73AF880BD80B5A2
:102D8000052000070122D103FFF732F880BD0000C3
:102D9000FFF744F8FFF716FFFFF7AEFF084C204699
:102DA000FFF774FD2046FFF73BFD064DFFF7E7FFF9
:102DB0002046FFF73FFD2860FFF7D8FFF6E7C04643
:102DC00028000020A409002043088B421AD30022C7
:102DD00003098B4279D3030A8B425ED3030B8B42E8
:102DE00042D3030C8B4227D30902FF2212BA030CF1
:102DF0008B4202D31212090203D0030B8B4233D34E
:102E00001AE0D3E0411A8041401C704703460B434F
:102E100071D443088B42F5D3002203098B4254D36B
:102E2000030A8B4239D3030B8B421DD3030C8B4215
:102E300002D394466EE0090AC30B8B4201D3CB0345
:102E4000C01A5241830B8B4201D38B03C01A5241EB
:102E5000430B8B4201D34B03C01A5241030B8B42ED
:102E600001D30B03C01A5241C30A8B4201D3CB02D8
:102E7000C01A5241830A8B4201D38B02C01A5241BD
:102E8000430A8B4201D34B02C01A5241030A8B42C0
:102E900001D30B02C01A5241CDD2C3098B4201D3D8
:102EA000CB01C01A524183098B4201D38B01C01A56
:102EB000524143098B4201D34B01C01A52410309CD
:102EC0008B4201D30B01C01A5241C3088B4201D37C
:102ED000CB00C01A524183088B4201D38B00C01A29
:102EE000524143088B4201D34B00C01A5241411A50
:102EF000524110007047CA0F00D04942031000D35E
:102F00004042534000229C4603098B422DD3030AC2
:102F10008B4212D38901FC2212BA030A8B420CD3D2
:102F2000890192118B4208D3890192118B4204D3FB
:102F3000890137D0921100E08909C3098B4201D37E
:102F4000CB01C01A524183098B4201D38B01C01AB5
:102F5000524143098B4201D34B01C01A524103092C
:102F60008B4201D30B01C01A5241C3088B4201D3DB
:102F7000CB00C01A524183088B4201D38B00C01A88
:102F80005241D9D243088B4201D34B00C01A52415F
:102F9000411A00D201465241104663465B1000D3ED
:102FA0004042704763465B1000D3404201B50021A8
:102FB000004201D0C9430846C046C04602BD10B514
:102FC00000F072F8EFF30080800001D5012010BD01
:102FD000002010BDF8B506460C46FDF73BFF051E68
:102FE0000F4600D00120014349000B484908411A0F
:102FF000C90F0DD0002E01D0012100E000210C43AB
:1030000061004908401AC00F02D10120FDF71CFFE2
:1030100028463946F8BD00000000F07F70B5012554
:10302000ED0704004C4020D4441A01D2001B0919BA
:10303000C60D4B00F2B2FF2A29D01B0E2CD0000285
:103040000C0228432C43D31ADC40051910D2280A5D
:1030500002D3401C6D0611D0761EF6058019FF2A9A
:1030600000DA70BDC00DC00570BD694000F0A4F865
:1030700001200543C541521C761CE8E764089C40CA
:10308000C90161408900E7D10124A043E4E71B0E98
:10309000440200D0034870BD002AFCD1C00FC00715
:1030A00070BD00BF0000C07F0123DB0502000A43A2
:1030B0000DD4DA4203D49A4207D488427047D842EA
:1030C00014D4D94212D48842704780427047DA4201
:1030D00003D59A42F9D5814270475B004200DA423B
:1030E00004D24A00DA4201D28142704710B5024A46
:1030F000FDF734FF10BD00BF0900130470B5420096
:1031000064414B005C41120E39D01B0E38D0FF2AAF
:103110003CD0FF2B3AD0D2187F3A40024902400AF5
:10312000490A4518ED0106004E43000A090A4843C2
:103130000104731A4019190C4318990F04D05B0845
:10314000012149075B1A521CD80904D3401CF5031E
:1031500001D19D0607D0FF2A08D2D50506D0E40785
:103160002043401970BD0125A843F4E7002A01DC83
:10317000E00770BD2402FF202043C00570BD1B0E78
:10318000FF2A03D0FF2B01D0E00770BDFF263606D3
:103190004500B54206D84D00B54203D8D218FF2AE3
:1031A00000D0E7E7004870BD0000C07F70B5012582
:1031B000ED0704004C4022D4441A02D26C40001B9C
:1031C0000919C60D4B00F2B2FF2A4BD01B0E50D08E
:1031D00000020C02A8432C43D31ADC40051B05D582
:1031E000AD0019D36D08761E521E37D0F605280A99
:1031F00001D2801970BD70416D0603D070BD694069
:10320000FFF712FF9C4009026140490001D0401EB7
:1032100070BD0124A04370BD6D081DD001202B0C92
:1032200001D12D0410302B0E01D12D0208302B0FAF
:1032300001D12D01001DAB0F01D1AD00801CEB0FA2
:1032400001D16D00401C361A121A6D00680AF5058E
:103250004019012A02DB70BD002070BDC036300A63
:10326000C00770BD1B0E440201D1FF2B00D10248E4
:1032700070BD002AF0D070BD0000C07F80807F7ECE
:103280007D7C7B7A797877767675747372717170DC
:103290006F6E6E6D6C6C6B6A6A696868676666658E
:1032A0006464636362616160605F5F5E5E5D5D5C1C
:1032B0005C5B5B5A5A59595858575756565555558D
:1032C0005454535352525251515050504F4F4F4EED
:1032D0004E4D4D4D4C4C4C4B4B4B4A4A4A4949493B
:1032E000484848474747474646464545454444447D
:1032F00044434343434242424241414181828384A9
:1033000085868788898B8C8D8E8F919293959697E1
:10331000999A9C9D9FA0A2A3A5A7A8AAACAEB0B263
:10332000B3B5B7B9BCBEC0C2C5C7C9CCCED1D4D75E
:10333000D9DCDFE2E6E9ECF0F3F7FAFE000000008A
:10334000000000000000000000000000000000007D
:10335000000000000000000000000000010000006C
:10336000020000000300000004000000060000004E
:10337000070000000800000009000000A03300085A
:103380000000002078080000C2100008E0330008A8
:103390007808002038070000040100080000000041
:1033A000414350043204C208435002320203FF0476
:1033B0000401FF01FF01FF01FF01FF01FF01FF0108
:1033C0001EC232A26D35DF81933C438842320343F3
:1033D000C842435001420192084524F4000182048E
:04000005080000C12E
:00000001FF
